{
    "contractName": "StaderStakeEth",
    "abi": [
        {
            "inputs": [
                {
                    "internalType": "address",
                    "name": "__eth",
                    "type": "address"
                },
                {
                    "internalType": "address",
                    "name": "__weth",
                    "type": "address"
                },
                {
                    "internalType": "address",
                    "name": "__ethx",
                    "type": "address"
                },
                {
                    "internalType": "address",
                    "name": "__staderPool",
                    "type": "address"
                }
            ],
            "stateMutability": "nonpayable",
            "type": "constructor"
        },
        {
            "anonymous": false,
            "inputs": [
                {
                    "indexed": true,
                    "internalType": "string",
                    "name": "adapterName",
                    "type": "string"
                },
                {
                    "indexed": false,
                    "internalType": "bytes",
                    "name": "data",
                    "type": "bytes"
                }
            ],
            "name": "ExecutionEvent",
            "type": "event"
        },
        {
            "inputs": [],
            "name": "eth",
            "outputs": [
                {
                    "internalType": "address",
                    "name": "",
                    "type": "address"
                }
            ],
            "stateMutability": "view",
            "type": "function"
        },
        {
            "inputs": [],
            "name": "ethx",
            "outputs": [
                {
                    "internalType": "address",
                    "name": "",
                    "type": "address"
                }
            ],
            "stateMutability": "view",
            "type": "function"
        },
        {
            "inputs": [
                {
                    "internalType": "address[]",
                    "name": "",
                    "type": "address[]"
                },
                {
                    "internalType": "uint256[]",
                    "name": "_amounts",
                    "type": "uint256[]"
                },
                {
                    "internalType": "bytes",
                    "name": "data",
                    "type": "bytes"
                }
            ],
            "name": "execute",
            "outputs": [
                {
                    "internalType": "address[]",
                    "name": "tokens",
                    "type": "address[]"
                }
            ],
            "stateMutability": "payable",
            "type": "function"
        },
        {
            "inputs": [],
            "name": "name",
            "outputs": [
                {
                    "internalType": "string",
                    "name": "",
                    "type": "string"
                }
            ],
            "stateMutability": "pure",
            "type": "function"
        },
        {
            "inputs": [
                {
                    "internalType": "bytes",
                    "name": "data",
                    "type": "bytes"
                }
            ],
            "name": "parseInputs",
            "outputs": [
                {
                    "internalType": "address",
                    "name": "recipient",
                    "type": "address"
                }
            ],
            "stateMutability": "pure",
            "type": "function"
        },
        {
            "inputs": [],
            "name": "staderPool",
            "outputs": [
                {
                    "internalType": "contract IStaderPool",
                    "name": "",
                    "type": "address"
                }
            ],
            "stateMutability": "view",
            "type": "function"
        },
        {
            "inputs": [],
            "name": "weth",
            "outputs": [
                {
                    "internalType": "address",
                    "name": "",
                    "type": "address"
                }
            ],
            "stateMutability": "view",
            "type": "function"
        }
    ],
    "bytecode": "61012060405234801561001157600080fd5b5060405161097f38038061097f83398101604081905261003091610073565b6001600160a01b0393841660805291831660a0523060c052821660e05216610100526100c7565b80516001600160a01b038116811461006e57600080fd5b919050565b6000806000806080858703121561008957600080fd5b61009285610057565b93506100a060208601610057565b92506100ae60408601610057565b91506100bc60608601610057565b905092959194509250565b60805160a05160c05160e0516101005161086061011f6000396000818161018401526103c20152600081816101b701526104a0015260006102840152600060ca015260008181610131015261045401526108606000f3fe6080604052600436106100705760003560e01c80638c7c9e0c1161004e5780638c7c9e0c146101225780639093410d1461015557806396df454414610175578063df9467c3146101a857600080fd5b806306fdde03146100755780633fc8cef3146100bb57806364ba4bc114610102575b600080fd5b34801561008157600080fd5b50604080518082018252600e81526d0a6e8c2c8cae4a6e8c2d6ca8ae8d60931b602082015290516100b29190610576565b60405180910390f35b3480156100c757600080fd5b507f00000000000000000000000000000000000000000000000000000000000000005b6040516001600160a01b0390911681526020016100b2565b6101156101103660046105dc565b6101db565b6040516100b291906106a2565b34801561012e57600080fd5b507f00000000000000000000000000000000000000000000000000000000000000006100ea565b34801561016157600080fd5b506100ea610170366004610705565b610382565b34801561018157600080fd5b507f00000000000000000000000000000000000000000000000000000000000000006100ea565b3480156101b457600080fd5b507f00000000000000000000000000000000000000000000000000000000000000006100ea565b604080518082019091526001808252601960f91b60208301526060919085146102205760405162461bcd60e51b81526004016102179190610576565b60405180910390fd5b50600061026284848080601f01602080910402602001604051908101604052809392919081815260200183838082843760009201919091525061038292505050565b9050600086866000818110610279576102796107b6565b9050602002013590507f00000000000000000000000000000000000000000000000000000000000000006001600160a01b0316306001600160a01b0316036102f5576040805180820190915260018152600d60fa1b60208201523482146102f35760405162461bcd60e51b81526004016102179190610576565b505b6060610301838361039e565b604080518082018252600e81526d0a6e8c2c8cae4a6e8c2d6ca8ae8d60931b60208201529051929650909250610336916107cc565b60405180910390207f747c4bdbdc67811d44a02055ff9315a921247b8ba675158870da5dd871caf3298260405161036d9190610576565b60405180910390a25050509695505050505050565b60008180602001905181019061039891906107e8565b92915050565b60405163f340fa0160e01b81526001600160a01b03838116600483015260609182917f0000000000000000000000000000000000000000000000000000000000000000169063f340fa0190859060240160206040518083038185885af115801561040c573d6000803e3d6000fd5b50505050506040513d601f19601f820116820180604052508101906104319190610811565b5060408051600280825260608201835290916020830190803683370190505091507f000000000000000000000000000000000000000000000000000000000000000082600081518110610486576104866107b6565b6001600160a01b03909216602092830291909101909101527f0000000000000000000000000000000000000000000000000000000000000000826001815181106104d2576104d26107b6565b6001600160a01b0390921660209283029190910182015260405161050e9186918691016001600160a01b03929092168252602082015260400190565b60405160208183030381529060405290509250929050565b60005b83811015610541578181015183820152602001610529565b50506000910152565b60008151808452610562816020860160208601610526565b601f01601f19169290920160200192915050565b602081526000610589602083018461054a565b9392505050565b60008083601f8401126105a257600080fd5b50813567ffffffffffffffff8111156105ba57600080fd5b6020830191508360208260051b85010111156105d557600080fd5b9250929050565b600080600080600080606087890312156105f557600080fd5b863567ffffffffffffffff8082111561060d57600080fd5b6106198a838b01610590565b9098509650602089013591508082111561063257600080fd5b61063e8a838b01610590565b9096509450604089013591508082111561065757600080fd5b818901915089601f83011261066b57600080fd5b81358181111561067a57600080fd5b8a602082850101111561068c57600080fd5b6020830194508093505050509295509295509295565b6020808252825182820181905260009190848201906040850190845b818110156106e35783516001600160a01b0316835292840192918401916001016106be565b50909695505050505050565b634e487b7160e01b600052604160045260246000fd5b60006020828403121561071757600080fd5b813567ffffffffffffffff8082111561072f57600080fd5b818401915084601f83011261074357600080fd5b813581811115610755576107556106ef565b604051601f8201601f19908116603f0116810190838211818310171561077d5761077d6106ef565b8160405282815287602084870101111561079657600080fd5b826020860160208301376000928101602001929092525095945050505050565b634e487b7160e01b600052603260045260246000fd5b600082516107de818460208701610526565b9190910192915050565b6000602082840312156107fa57600080fd5b81516001600160a01b038116811461058957600080fd5b60006020828403121561082357600080fd5b505191905056fea26469706673582212204ee88272a6f66b946787b79f91316a3cecfd7bc0d3d7cd02a2b345dced8e221264736f6c63430008120033",
    "sourcePath": "/Users/router/work/router/router-intents-core/contracts/intent-adapters/liquid-staking/Stader/StaderStakeEth.sol",
    "compiler": {
        "name": "solc",
        "version": "0.8.18+commit.87f61d96"
    },
    "functionHashes": {
        "eth()": "8c7c9e0c",
        "ethx()": "df9467c3",
        "execute(address[],uint256[],bytes)": "64ba4bc1",
        "name()": "06fdde03",
        "parseInputs(bytes)": "9093410d",
        "staderPool()": "96df4544",
        "weth()": "3fc8cef3"
    },
    "gasEstimates": {
        "creation": {
            "codeDepositCost": "428800",
            "executionCost": "infinite",
            "totalCost": "infinite"
        },
        "external": {
            "eth()": "infinite",
            "ethx()": "infinite",
            "execute(address[],uint256[],bytes)": "infinite",
            "name()": "infinite",
            "parseInputs(bytes)": "infinite",
            "staderPool()": "infinite",
            "weth()": "infinite"
        },
        "internal": {
            "_stake(address,uint256)": "infinite"
        }
    }
}